:020000040000FA
:0A0000000200A8758902438810224F
:10000B000201B2BB010689828A83F0225002F722D9
:10001B00BBFE01F322F8BB010DE58229F582E583D6
:10002B003AF583E8F0225006E92582C8F622BBFE9A
:10003B0005E92582C8F222BC000BBE0029EF8DF02A
:10004B0084FFADF022E4CCF875F008EF2FFFEE3310
:10005B00FEEC33FCEE9DEC984005FCEE9DFE0FD5BF
:10006B00F0E9E4CEFD22EDF8F5F0EE8420D21CFE93
:10007B00ADF075F008EF2FFFED33FD4007985006FC
:10008B00D5F0F222C398FD0FD5F0EA22EB9FF5F0E5
:10009B00EA9E42F0E99D42F0E89C45F022787FE42D
:1000AB00F6D8FD7581240200EF0202C8E493A3F891
:1000BB00E493A34003F68001F208DFF48029E49374
:1000CB00A3F85407240CC8C333C4540F4420C8836B
:1000DB004004F456800146F6DFE4800B010204086D
:1000EB00102040809002E9E47E019360BCA3FF5492
:1000FB003F30E509541FFEE493A360010ECF54C0BB
:10010B0025E060A840B8E493A3FAE493A3F8E49342
:10011B00A3C8C582C8CAC583CAF0A3C8C582C8CA4A
:10012B00C583CADFE9DEE780BE8E198F1A8B1B8A67
:10013B001C891D7C007D0A120042900003ED120009
:10014B0020AE19AF1A7C007D0A1200428E198F1A4D
:10015B007C007D0A120042AB1BAA1CA91D90000259
:10016B00ED120020AE19AF1A7C007D0A1200428EF0
:10017B00198F1A7C007D0A120042AB1BAA1CA91D09
:10018B00900001ED120020AE19AF1A7C007D0A120F
:10019B0000428E198F1A7C007D0A120042AB1BAAFB
:1001AB001CA91DED02000EC0E0C0F0C083C082C0D0
:1001BB00D075D000C000C001C002C003C004C00590
:1001CB00C006C007C28D0522E52270020521640519
:1001DB004521702D30002A74152524F8E6F523AF40
:1001EB00241202A4AF231202700524D3E524940336
:1001FB00748094804005752402C20075210075221D
:10020B0000D007D006D005D004D003D002D001D047
:10021B0000D0D0D082D083D0F0D0E0327597A5E457
:10022B00F51CF51BF51AF519E47FCCFEFDFCAB1C98
:10023B00AA1BA91AA819C3120097501800E51C2471
:10024B0001F51CE4351BF51BE4351AF51AE43519D9
:10025B00F51980D4A2AF9201C2AF7597DE7597AD39
:10026B00A20192AF2274082FF8E6FFE4FEEEC394CE
:10027B000874809480501BC374079EFDEFF4FCA898
:10028B0005088002C313D8FC139282D280C2800E61
:10029B0080DBC283D283C28322D283EF14600F141C
:1002AB00601114601324037013C291C29222D29175
:1002BB00C29222C291D29222D291D29222120304E2
:1002CB00C2AF12032C12033CD2AF2000FD7B007A8D
:1002DB00007915AF14AE13120134D20080EC0B0869
:1002EB003F065B4F666D7D077F6F000221000001AB
:1002FB0024020213000CC100001202271203581231
:10030B00034C120319120003120350020354AF885B
:10031B005388AF758C01EF5440FEEF54104E42885A
:10032B002243A50243A50443A410C291C292C284E6
:10033B002243A40143A40443A408C280C282D283F3
:10034B002275E3402253F8F32275A8822275A5107B
:01035B00227F
:00000001FF
