:020000040000FA
:1000000002002E020006C28920010B200008850C88
:100010000E850D0FD201750C00750D00C2003275F2
:10002000A5102275E340224388012202013C787F1B
:10003000E4F6D8FD75812002007502014BE493A31C
:10004000F8E493A34003F68001F208DFF48029E48A
:1000500093A3F85407240CC8C333C4540F4420C8D6
:10006000834004F456800146F6DFE4800B0102046D
:100070000810204080900159E47E019360BCA3FFEA
:10008000543F30E509541FFEE493A360010ECF54A2
:10009000C025E060A840B8E493A3FAE493A3F8E491
:1000A00093A3C8C582C8CAC583CAF0A3C8C582C8FD
:1000B000CAC583CADFE9DEE780BE7597A5E4F50B04
:1000C000F50AF509F508E47FCCFEFDFCAB0BAA0AA6
:1000D000A909A808C312012B501800E50B2401F54B
:1000E0000BE4350AF50AE43509F509E43508F508A5
:1000F00080D4A2AF9202C2AF7597DE7597ADA2020F
:1001000092AF221200BA12001F120023120118121D
:10011000002712016A020166E5C8540453C8FB7542
:10012000CBFF75CAFC43C80442C822EB9FF5F0EA36
:100130009E42F0E99D42F0E89C45F022C0E0C2CF2B
:10014000050DE50D7002050CD0E032120103C294DA
:100150003001FDB294C20180F7020C0000C180C1E1
:0E01600001020E00000075A8A12275E40C2219
:00000001FF
