:020000040000FA
:100000000203D402064275A51022220204DE75897D
:09001000224388512275E34022CD
:0B001B0002060F75A8AB2275E46F22EF
:10002B00020694EC4D6011E8497017ED33EC330484
:10003B00600DE4FCFFFEFD22E933E8330470F802A7
:10004B00027E12024958046009E4CC248150062830
:10005B005009020288284003020285C0E0EB4A7077
:10006B0044B98006D0E0FB020274EF4E701CBD80D9
:10007B0008EBFFEAFEE9FD80EBE98DF0A4FEE5F06D
:10008B00020117E9CDF9EAFEEBFFEF89F0A4FCE5DD
:10009B00F0CE89F0A42EFFE435F0CD89F0A42DFE2F
:1000AB00E435F08067EF4E7005BD80D780C3EF8BD2
:1000BB00F0A4ACF0EE8BF0A42CFCE435F0F8EF8A56
:1000CB00F0A42CE5F038FCE433CB8DF0A42CFCE54C
:1000DB00F03BF8EE8AF0A42CFCE5F038F8E433CFD3
:1000EB0089F0A42CFCE5F038CF3400CE89F0A42F96
:1000FB00FFE5F03EFEE433C98DF0A42EFEE5F039AA
:10010B00CD8AF0A42FFFE5F03EFEE43DFD33D0E0B9
:10011B00FB50070BBB000F020288EC2CFCEF33FFEC
:10012B00EE33FEED33FD020260020288EC5D0460EB
:10013B0005E85904700302027E120249580460F666
:10014B00EC4860F2EC7004FDFEFF22C860DB2481FA
:10015B00C85009C398600250060202859850CAF530
:10016B0082E9294B4A7005AB8202027475F0007C60
:10017B001A7880C3EF9BEE9AED99400DC3EF9BFF6E
:10018B00EE9AFEED99FDE842F0DC23ACF0D0E0FFF7
:10019B00D0E0FED0E0FDAB8220E7101BEB60BAECA9
:1001AB002CFCEF33FFEE33FEED33FD020260E80370
:1001BB00F830E705C0F075F000EF2FFFEE33FEEDE2
:1001CB0033FD40B830E7C280AA75F020800E75F081
:1001DB0010800575F0087D007E007F003392D530CE
:1001EB00D50312031CEC334010EF33FFEE33FEED5F
:1001FB0033FDEC33FCD5F0ED22E5F0247EA2D513D4
:10020B00CC92E7CDCEFF22EDD2E7CD33EC3392D5B6
:10021B0024814006E4FFFEFDFC22FCE4CFCECDCCD6
:10022B0024E0501174FF80EDC3CC13CCCD13CDCE95
:10023B0013CECF13CF0470F030D5DE02031CE9D2FE
:10024B00E7C933E833F892D5EDD2E7CD33EC33FC85
:10025B005002B2D522EC30E7100FBF000C0EBE00DF
:10026B00080DBD00040BEB6014A2D5EB13FCED9253
:10027B00E7FD2274FFFCFDFEFF22E480F8A2D5749B
:10028B00FF13FC7D80E480EFBB010689828A83F03B
:10029B00225002F722BBFE01F322F8BB010DE582CF
:1002AB0029F582E5833AF583E8F0225006E92582A9
:1002BB00C8F622BBFE05E92582C8F222BC000BBEA4
:1002CB000029EF8DF084FFADF022E4CCF875F00837
:1002DB00EF2FFFEE33FEEC33FCEE9DEC984005FC6C
:1002EB00EE9DFE0FD5F0E9E4CEFD22EDF8F5F0EE34
:1002FB008420D21CFEADF075F008EF2FFFED33FD1F
:10030B004007985006D5F0F222C398FD0FD5F0EABE
:10031B0022C3E49FFFE49EFEE49DFDE49CFC22EBE4
:10032B009FF5F0EA9E42F0E99D42F0E89C45F022F1
:10033B001206B3C2AF1206F7120707D2AFA20030F4
:10034B000201B35009200002B294A20292003001C4
:10035B001DAC18AD19E41201D97B907A7A798378A8
:10036B003712002E8F0B8E0A8D098C08C2012003C9
:10037B00CC850B0F850A0E85090D85080C300427DB
:10038B00AB0FAA0EA90DA80C7F7A7E307D617C3E47
:10039B001201377466FBFAF9784012002E8F138E18
:1003AB00128D118C108009E4F513F512F511F5106F
:1003BB00AF13AE12AD11AC101202127B007A0079A2
:1003CB0014120460D203020348787FE4F6D8FD755B
:1003DB00813302041B02033BE493A3F8E493A34091
:1003EB0003F68001F208DFF48029E493A3F85407A5
:1003FB00240CC8C333C4540F4420C8834004F456A0
:10040B00800146F6DFE4800B0102040810204080D7
:10041B0090059CE47E019360BCA3FF543F30E5093B
:10042B00541FFEE493A360010ECF54C025E060A8D7
:10043B0040B8E493A3FAE493A3F8E493A3C8C5826A
:10044B00C8CAC583CAF0A3C8C582C8CAC583CADFD8
:10045B00E9DEE780BE8E1A8F1B8B1C8A1D891E7CE2
:10046B00007D0A1202C7900003ED1202A5AE1AAF6F
:10047B001B7C007D0A1202C78E1A8F1B7C007D0A23
:10048B001202C7AB1CAA1DA91E900002ED1202A5F9
:10049B00AE1AAF1B7C007D0A1202C78E1A8F1B7C13
:1004AB00007D0A1202C7AB1CAA1DA91E900001ED0C
:1004BB001202A5AE1AAF1B7C007D0A1202C78E1A60
:1004CB008F1B7C007D0A1202C7AB1CAA1DA91EED57
:1004DB00020293C0E0C0F0C083C082C0D075D000D0
:1004EB00C000C001C002C003C004C005C006C007E5
:1004FB00C28D052DE52D7002052C6405452C702D44
:10050B0030032A7414252FF8E6F52EAF2F12067040
:10051B00AF2E1205DB052FD3E52F94037480948047
:10052B004005752F02C203752C00752D00D007D026
:10053B0006D005D004D003D002D001D000D0D0D04B
:10054B0082D083D0F0D0E0327597A5E4F51DF51C71
:10055B00F51BF51AE47FCCFEFDFCAB1DAA1CA91BF9
:10056B00A81AC312032A501800E51D2401F51DE437
:10057B00351CF51CE4351BF51BE4351AF51A80D434
:10058B00A2AF9206C2AF7597DE7597ADA20692AF7A
:10059B00220B213F065B4F666D7D077F6F0002329A
:1005AB000000022C0000012F0102300000C105C128
:1005BB0003C10102180000C104C1020408000000BD
:1005CB0000040C00000000041000000000C100003B
:1005DB0074212FF8E6FFE4FEEEC394087480948038
:1005EB00501BC374079EFDEFF4FCA805088002C3E3
:1005FB0013D8FC139282D280C2800E80DBC283D2CE
:10060B0083C28322C0E0C0D0C28FA202308101B36B
:10061B004002D20530051B0531E53170020530C3B0
:10062B009496E5309400400AB202C205753000750D
:10063B003100D0D0D0E032C0E0C0D075D000C006C1
:10064B00C007E4C2ADAE32AF33F532F533D204D2CC
:10065B00ADC2892001068E188F19D201D007D006A2
:10066B00D0D0D0E032D283EF14600F14601114603D
:10067B001324037013C291C29222D291C29222C24E
:10068B0091D29222D291D29222C0E0C0D0C2CF0599
:10069B0033E53370020532E533B4FF07E532B4FFBF
:1006AB0002C204D0D0D0E032120553120006120061
:1006BB001512000A1206CE1206E412000E120022C8
:1006CB0002001EAF885388AF758C01758D01EF54F6
:1006DB0040FEEF54104E428822E5C8540453C8FB29
:1006EB0075CBFF75CAFC43C80442C82243A502431D
:1006FB00A50443A410C291C292C2842243A4014315
:0C070B00A40443A408C280C282D283224E
:00000001FF
