:020000040000FA
:100000000203CA02061275A51022220204DC7589B9
:09001000224388512275E34022CD
:0B001B000205DE75A8AB2275E40E2282
:10002B00020699EC4D6011E8497017ED33EC33047F
:10003B00600DE4FCFFFEFD22E933E8330470F802A7
:10004B00027E12024958046009E4CC248150062830
:10005B005009020288284003020285C0E0EB4A7077
:10006B0044B98006D0E0FB020274EF4E701CBD80D9
:10007B0008EBFFEAFEE9FD80EBE98DF0A4FEE5F06D
:10008B00020117E9CDF9EAFEEBFFEF89F0A4FCE5DD
:10009B00F0CE89F0A42EFFE435F0CD89F0A42DFE2F
:1000AB00E435F08067EF4E7005BD80D780C3EF8BD2
:1000BB00F0A4ACF0EE8BF0A42CFCE435F0F8EF8A56
:1000CB00F0A42CE5F038FCE433CB8DF0A42CFCE54C
:1000DB00F03BF8EE8AF0A42CFCE5F038F8E433CFD3
:1000EB0089F0A42CFCE5F038CF3400CE89F0A42F96
:1000FB00FFE5F03EFEE433C98DF0A42EFEE5F039AA
:10010B00CD8AF0A42FFFE5F03EFEE43DFD33D0E0B9
:10011B00FB50070BBB000F020288EC2CFCEF33FFEC
:10012B00EE33FEED33FD020260020288EC5D0460EB
:10013B0005E85904700302027E120249580460F666
:10014B00EC4860F2EC7004FDFEFF22C860DB2481FA
:10015B00C85009C398600250060202859850CAF530
:10016B0082E9294B4A7005AB8202027475F0007C60
:10017B001A7880C3EF9BEE9AED99400DC3EF9BFF6E
:10018B00EE9AFEED99FDE842F0DC23ACF0D0E0FFF7
:10019B00D0E0FED0E0FDAB8220E7101BEB60BAECA9
:1001AB002CFCEF33FFEE33FEED33FD020260E80370
:1001BB00F830E705C0F075F000EF2FFFEE33FEEDE2
:1001CB0033FD40B830E7C280AA75F020800E75F081
:1001DB0010800575F0087D007E007F003392D530CE
:1001EB00D50312031CEC334010EF33FFEE33FEED5F
:1001FB0033FDEC33FCD5F0ED22E5F0247EA2D513D4
:10020B00CC92E7CDCEFF22EDD2E7CD33EC3392D5B6
:10021B0024814006E4FFFEFDFC22FCE4CFCECDCCD6
:10022B0024E0501174FF80EDC3CC13CCCD13CDCE95
:10023B0013CECF13CF0470F030D5DE02031CE9D2FE
:10024B00E7C933E833F892D5EDD2E7CD33EC33FC85
:10025B005002B2D522EC30E7100FBF000C0EBE00DF
:10026B00080DBD00040BEB6014A2D5EB13FCED9253
:10027B00E7FD2274FFFCFDFEFF22E480F8A2D5749B
:10028B00FF13FC7D80E480EFBB010689828A83F03B
:10029B00225002F722BBFE01F322F8BB010DE582CF
:1002AB0029F582E5833AF583E8F0225006E92582A9
:1002BB00C8F622BBFE05E92582C8F222BC000BBEA4
:1002CB000029EF8DF084FFADF022E4CCF875F00837
:1002DB00EF2FFFEE33FEEC33FCEE9DEC984005FC6C
:1002EB00EE9DFE0FD5F0E9E4CEFD22EDF8F5F0EE34
:1002FB008420D21CFEADF075F008EF2FFFED33FD1F
:10030B004007985006D5F0F222C398FD0FD5F0EABE
:10031B0022C3E49FFFE49EFEE49DFDE49CFC22EBE4
:10032B009FF5F0EA9E42F0E99D42F0E89C45F022F1
:10033B001206B8C2AF1206FC12070CD2AF30010482
:10034B00B294C20130001DAC18AD19E41201D97B77
:10035B00907A7A7983783712002E8F0B8E0A8D095B
:10036B008C08C2002002D6850B0F850A0E85090D5D
:10037B0085080C300327AB0FAA0EA90DA80C7F7AAA
:10038B007E307D617C3E1201377466FBFAF9784052
:10039B0012002E8F138E128D118C108009E4F51321
:1003AB00F512F511F510AF13AE12AD11AC10120220
:1003BB00127B007A007914120456D2020203487899
:1003CB007FE4F6D8FD75813302041102033BE493FD
:1003DB00A3F8E493A34003F68001F208DFF480292D
:1003EB00E493A3F85407240CC8C333C4540F44201C
:1003FB00C8834004F456800146F6DFE4800B01020B
:10040B0004081020408090059FE47E019360BCA3FC
:10041B00FF543F30E509541FFEE493A360010ECF58
:10042B0054C025E060A840B8E493A3FAE493A3F882
:10043B00E493A3C8C582C8CAC583CAF0A3C8C58242
:10044B00C8CAC583CADFE9DEE780BE8E1A8F1B8B55
:10045B001C8A1D891E7E007C007D0A1202C790003B
:10046B0003ED1202A5AE1AAF1B7C007D0A1202C768
:10047B008E1A8F1B7E007C007D0A1202C7AB1CAA52
:10048B001DA91E900002ED1202A5AE1AAF1B7C0037
:10049B007D0A1202C78E1A8F1B7E007C007D0A120A
:1004AB0002C7AB1CAA1DA91E900001ED1202A5AE3E
:1004BB001AAF1B7C007D0A1202C78E1A8F1B7E009F
:1004CB007C007D0A1202C7AB1CAA1DA91EED0202FD
:1004DB0093C0E0C0F0C083C082C0D075D000C00014
:1004EB00C001C002C003C004C005C006C007C28D56
:1004FB00052DE52D7002052C6405452C703230025C
:10050B002F7F0B1206457414252FF8E6F52EAF2F0F
:10051B00120677AF2E120645052FD3E52F940374E1
:10052B008094804005752F02C202752C00752D003A
:10053B00D007D006D005D004D003D002D001D00014
:10054B00D0D0D082D083D0F0D0E0327597A5E4F52F
:10055B001DF51CF51BF51AE47FCCFEFDFCAB1DAAAB
:10056B001CA91BA81AC312032A501800E51D24014D
:10057B00F51DE4351CF51CE4351BF51BE4351AF5AC
:10058B001A80D4A2AF9206C2AF7597DE7597ADA253
:10059B000692AF220B213F065B4F666D7D077F6F87
:1005AB000002320000C184022C0000012F01023036
:1005BB000000C105C102C10002180000C103C10146
:1005CB00040800000000040C0000000004100000F0
:1005DB00000000C0E0C0D0C28F20871EC3E531945D
:1005EB0032E5309400500A0531E531701505308045
:1005FB001120050ED201D20580087530007531002F
:10060B00C205D0D0D0E032C0E0C0D075D000C0065B
:10061B00C007E4C2ADAE32AF33F532F533D203D2FD
:10062B00ADC2892000092004068E188F19D200C292
:10063B0004D007D006D0D0D0E03274212FF8E6FFDB
:10064B00E4FEEEC3940874809480501BC374079E21
:10065B00FDEFF4FCA805088002C313D8FC139282AB
:10066B00D280C2800E80DBD283C28322EF14600F54
:10067B0014601114601324037013C291C29222D21E
:10068B0091C29222C291D29222D291D29222C0E0F6
:10069B00C0D0C2CF0533E53370020532E533B4FF6A
:1006AB0007E532B4FF02C203D0D0D0E032120556B8
:1006BB0012000612001512000A1206D31206E912D6
:1006CB00000E12002202001EAF885388AF758C01FA
:1006DB00758D01EF5440FEEF54104E428822E5C851
:1006EB00540453C8FB75CBFF75CAFC43C80442C8FE
:1006FB002243A50243A50443A410C291C292C28413
:10070B002243A40143A40443A408C280C282D2831F
:01071B0022BB
:00000001FF
